S01100006D616B726F736B6F702E737265633C
S11300000C9434000C94E6020C9421030C945100DB
S11300100C9451000C9451000C9451000C94510018
S11300200C9451000C9436040C9451000C9451001F
S11300300C9451000C9451000C9451000C945100F8
S11300400C945C030C9451000C9431020C945100F8
S11300500C9451000C9498020C9451000C9451008F
S11300600C9451000C94510011241FBECFEFD4E026
S1130070DEBFCDBF11E0A0E0B1E0E2E0FAE002C0F3
S113008005900D92AA30B107D9F721E0AAE0B1E0BA
S113009001C01D92A834B207E1F70E94D8040C9461
S11300A0FF040C94000086E084B997E397B992ECBE
S11300B09AB921E02BB98093C2001092C5008CE05C
S11300C08093C40088E98093C10033E030937C00BE
S11300D08EE880937A008AE0809369003DBB80EAD1
S11300E08093800081E1809381008FEF90E0909372
S11300F087008093860035BD20936E0085E0809351
S1130100B1002093700081E090E00895CF92DF92D7
S1130110EF92FF9220910001309101016901EE24D8
S1130120D7FCE094FE2CC616D706E806F9067CF048
S11301303195219531096901EE24D7FCE094FE2C18
S1130140C616D706E806F90614F46B017C01FF20F5
S113015054F44498882799278C199D099093890011
S1130160809388000AC0449A2FEF30E0C9018C19AB
S11301709D099093890080938800809188009091D4
S11301808900A0E0B0E08093230190932401A09320
S11301902501B0932601FF90EF90DF90CF90089552
S11301A0CF92DF92EF92FF922091000130910101F2
S11301B06901EE24D7FCE094FE2CC616D706E806A7
S11301C0F9067CF03195219531096901EE24D7FCBB
S11301D0E094FE2CC616D706E806F90614F46B0163
S11301E07C01FF2054F44598882799278C199D0990
S11301F090938B0080938A000AC0459A2FEF30E0D9
S1130200C9018C199D0990938B0080938A00FF90FB
S1130210EF90DF90CF900895E0ECF0E0208125FF8F
S1130220FDCF8093C6009C013327822F932F08951E
S1130230CF93DF93EC018991882331F090E00E9401
S11302400C0189918111FACFDF91CF910895CF925A
S1130250DF92EF92FF920F931F93CF93DF936B0183
S11302607C01C42FD0E021971AF18E01000F111FD9
S1130270000F111FD701C601002E04C0B595A79524
S1130280979587950A94D2F78F708A3028F490E076
S1130290C0960E940C0105C090E0895A9F4F0E94AD
S11302A00C01219704501109CF3F8FEFD80711F7A4
S11302B0DF91CF911F910F91FF90EF90DF90CF903E
S11302C0089580E590E00E940C0180914401909192
S11302D04501A0914601B0914701BC01CD01615097
S11302E07109884F9F4F45E00E942701809140018A
S11302F090914101A0914201B0914301BC01CD0113
S113030061507109884F9F4F45E00E942701609119
S11303100F017091100180E090E043E00E942701FA
S113032060910D0170910E0180E090E043E00E9425
S1130330270160910B0170910C0180E090E043E093
S11303400E94270110922F0108958A3310F48053DC
S1130350089587550895AF92BF92CF92DF92EF929E
S1130360FF920F931F93CF93DF93062F10E001505A
S1130370110942F1080F111D0D5E1E4FA62EB12C5E
S1130380AA0CBB1CAA0CBB1CC0E0D0E0C12CD12C15
S11303907601F80182918F010E94A50190E0A0E00E
S11303A0B0E00C2E04C0880F991FAA1FBB1F0A942B
S11303B0D2F7C80ED91EEA1EFB1E2496CA15DB0509
S11303C041F703C0C12CD12C76016C2D7D2D8E2DCF
S11303D09F2DDF91CF911F910F91FF90EF90DF90B0
S11303E0CF90BF90AF900895EAE7F0E080818064F9
S11303F0808365E080E00E94AB01DC01CB018F5F6C
S11304009F4FA740B10980933C0190933D01A09375
S11304103E01B0933F0165E085E00E94AB01DC0141
S1130420CB018F5F9F4FA740B10980933801909310
S11304303901A0933A01B0933B0162E08AE00E9443
S1130440AB01462F572F682F792F40930201509309
S11304500301609304017093050181E080932F01EF
S113046008951F920F920FB60F9211242F933F936A
S11304704F935F936F937F938F939F93AF93BF93A8
S1130480EF93FF938091C600883429F48FE490E0C1
S11304900E940C013CC0863529F486E091E00E945C
S11304A0180135C08D3459F4EFE1F1E082E191E0B7
S11304B01292E817F907E1F71092110128C0909100
S11304C01101E92FF0E0EE5EFE4F8083892F8F5FEC
S11304D0809311018D30A1F480E090E020E030E0C1
S11304E0FC01EE5EFE4F808138272F5F822F90E063
S11304F02C30B1F780911E01381309C00E94F40119
S1130500809111018E3018F08DE080931101FF91DC
S1130510EF91BF91AF919F918F917F916F915F9177
S11305204F913F912F910F900FBE0F901F901895F0
S11305301F920F920FB60F9211248F939F93EF93F4
S1130540FF9380910A01811111C0809178009091EC
S113055079009093100180930F0186E080937C00D2
S113056080910A018F5F80930A0122C080910A0161
S1130570813089F4809178009091790090930E01F4
S113058080930D0187E080937C0080910A018F5F46
S113059080930A010DC08091780090917900909326
S11305A00C0180930B0183E080937C0010920A017C
S11305B0EAE7F0E0808180648083FF91EF919F916E
S11305C08F910F900FBE0F901F9018951F920F924E
S11305D00FB60F9211248F939F93AF93BF934C9BAD
S11305E014C08091440190914501A0914601B091BD
S11305F047010197A109B1098093440190934501F2
S1130600A0934601B093470113C080914401909197
S11306104501A0914601B09147010196A11DB11D6C
S11306208093440190934501A0934601B093470100
S1130630BF91AF919F918F910F900FBE0F901F901C
S113064018951F920F920FB60F9211248F939F93B8
S1130650AF93BF934D9B14C0809140019091410191
S1130660A0914201B09143010197A109B10980937E
S1130670400190934101A0934201B093430113C000
S11306808091400190914101A0914201B0914301B8
S11306900196A11DB11D8093400190934101A09347
S11306A04201B0934301BF91AF919F918F910F90FD
S11306B00FBE0F901F9018951F920F920FB60F92B6
S11306C011240F931F932F933F934F935F936F9333
S11306D07F938F939F93AF93BF93EF93FF938091F7
S11306E03C0190913D01A0913E01B0913F014091A8
S11306F04401509145016091460170914701841B6A
S1130700950BA60BB70B40913401509135016091C4
S113071036017091370148325540610571050CF579
S11307204091340150913501609136017091370147
S1130730493D5A4F6F4F7F4FA4F04091340150917F
S113074035016091360170913701480F591F6A1FB6
S11307507B1F4093340150933501609336017093AD
S11307603701409134015091350160913601709107
S11307703701452F562F672F772767FD7A958A0112
S11307809B01080F191F2A1F3B1FC901B8010E94B2
S113079086008091380190913901A0913A01B0917D
S11307A03B0140914001509141016091420170919F
S11307B04301841B950BA60BB70B4091300150915C
S11307C03101609132017091330148325540610525
S11307D071050CF540913001509131016091320165
S11307E070913301493D5A4F6F4F7F4FA4F04091B0
S11307F03001509131016091320170913301480F01
S1130800591F6A1F7B1F409330015093310160933D
S11308103201709333014091300150913101609164
S1130820320170913301452F562F672F772767FDCB
S11308307A958A019B01080F191F2A1F3B1FC901C2
S1130840B8010E94D000FF91EF91BF91AF919F91A9
S11308508F917F916F915F914F913F912F911F9154
S11308600F910F900FBE0F901F9018951F920F922B
S11308700FB60F9211240F931F932F933F934F930F
S11308805F936F937F938F939F93AF93BF93809165
S1130890440190914501A0914601B0914701009116
S11308A01F011091200120912101309122014091DA
S11308B00201509103016091040170910501801BB4
S11308C0910BA20BB30B99231CF49195819591097B
S11308D0AA2797FDA095BA2F841B950BA60BB70BDF
S11308E0181619061A061B0664F5880F991FAA1F05
S11308F0BB1F880F991FAA1FBB1F880F991FAA1F10
S1130900BB1F880F991FAA1FBB1F809327019093B9
S11309102801A0932901B0932A018F3F9105A105D5
S1130920B10529F024F08FEF90E0A0E0B0E02FEFC4
S113093030E0A901481B590B509301014093000179
S113094006C08FEF90E090930101809300018091A5
S1130950000190910101AA2797FDA095BA2F8093D9
S11309602B0190932C01A0932D01B0932E01809123
S1130970440190914501A0914601B09147018093B3
S11309801F0190932001A0932101B0932201BF91F4
S1130990AF919F918F917F916F915F914F913F9113
S11309A02F911F910F910F900FBE0F901F901895CC
S11309B00E9453007894EAE7F0E0808180648083A9
S11309C05E9A5F9A80912F0181110E94610180914A
S11309D00D0190910E01893C910538F480910B0131
S11309E090910C01893C910518F05E985F98419AAA
S11309F08FE99FE00197F1F700C00000E3CFF8947E
S1050A00FFCF22
S10D0A02FF0001000000302E320056
S9030000FC
